:020000020000FC
:0200000006C038
:10000C0021C00FE50DBF04E00EBF08E007BB0027C1
:10001C0008BB112700270FBD09E00EBD00270CBD42
:10002C0006BD04E00BBD02EE0ABD002709BD08BDEC
:10003C0002BD09E605BD002704BD03BD00E109BFF3
:10004C007894FFCFF0E0E4E6E10FC89503BC13957C
:10005C00103809F4112718957F868C92989EA4AAC3
:10006C00B0B6BBC1C6CBD0D5D9DEE2E6E9ECF0F236
:10007C00F5F7F9FBFCFDFEFEFEFEFEFDFCFBF9F7C1
:10008C00F5F2F0ECE9E6E2DED9D5D0CBC6C1BBB6D1
:10009C00B0AAA49E98928C867F79736D67615B552C
:1000AC004F49443E39342F2A26211D1916130F0DA2
:1000BC000A080604030201010001010203040608F8
:1000CC000A0D0F1316191D21262A2F34393E4449C7
:0800DC004F555B61676D7379FC
:00000001FF
